{
  "_format": "hh-sol-artifact-1",
  "contractName": "ARMY",
  "sourceName": "contracts/ARMY.sol",
  "abi": [
    {
      "inputs": [],
      "stateMutability": "nonpayable",
      "type": "constructor"
    },
    {
      "anonymous": false,
      "inputs": [
        {
          "indexed": true,
          "internalType": "address",
          "name": "owner",
          "type": "address"
        },
        {
          "indexed": true,
          "internalType": "address",
          "name": "approved",
          "type": "address"
        },
        {
          "indexed": true,
          "internalType": "uint256",
          "name": "tokenId",
          "type": "uint256"
        }
      ],
      "name": "Approval",
      "type": "event"
    },
    {
      "anonymous": false,
      "inputs": [
        {
          "indexed": true,
          "internalType": "address",
          "name": "owner",
          "type": "address"
        },
        {
          "indexed": true,
          "internalType": "address",
          "name": "operator",
          "type": "address"
        },
        {
          "indexed": false,
          "internalType": "bool",
          "name": "approved",
          "type": "bool"
        }
      ],
      "name": "ApprovalForAll",
      "type": "event"
    },
    {
      "anonymous": false,
      "inputs": [
        {
          "indexed": true,
          "internalType": "address",
          "name": "previousOwner",
          "type": "address"
        },
        {
          "indexed": true,
          "internalType": "address",
          "name": "newOwner",
          "type": "address"
        }
      ],
      "name": "OwnershipTransferred",
      "type": "event"
    },
    {
      "anonymous": false,
      "inputs": [
        {
          "indexed": true,
          "internalType": "address",
          "name": "from",
          "type": "address"
        },
        {
          "indexed": true,
          "internalType": "address",
          "name": "to",
          "type": "address"
        },
        {
          "indexed": true,
          "internalType": "uint256",
          "name": "tokenId",
          "type": "uint256"
        }
      ],
      "name": "Transfer",
      "type": "event"
    },
    {
      "inputs": [
        {
          "internalType": "address",
          "name": "to",
          "type": "address"
        },
        {
          "internalType": "uint256",
          "name": "tokenId",
          "type": "uint256"
        }
      ],
      "name": "approve",
      "outputs": [],
      "stateMutability": "nonpayable",
      "type": "function"
    },
    {
      "inputs": [
        {
          "internalType": "address",
          "name": "owner",
          "type": "address"
        }
      ],
      "name": "balanceOf",
      "outputs": [
        {
          "internalType": "uint256",
          "name": "",
          "type": "uint256"
        }
      ],
      "stateMutability": "view",
      "type": "function"
    },
    {
      "inputs": [
        {
          "internalType": "uint256",
          "name": "tokenId",
          "type": "uint256"
        }
      ],
      "name": "getApproved",
      "outputs": [
        {
          "internalType": "address",
          "name": "",
          "type": "address"
        }
      ],
      "stateMutability": "view",
      "type": "function"
    },
    {
      "inputs": [
        {
          "internalType": "address",
          "name": "owner",
          "type": "address"
        },
        {
          "internalType": "address",
          "name": "operator",
          "type": "address"
        }
      ],
      "name": "isApprovedForAll",
      "outputs": [
        {
          "internalType": "bool",
          "name": "",
          "type": "bool"
        }
      ],
      "stateMutability": "view",
      "type": "function"
    },
    {
      "inputs": [],
      "name": "name",
      "outputs": [
        {
          "internalType": "string",
          "name": "",
          "type": "string"
        }
      ],
      "stateMutability": "view",
      "type": "function"
    },
    {
      "inputs": [],
      "name": "owner",
      "outputs": [
        {
          "internalType": "address",
          "name": "",
          "type": "address"
        }
      ],
      "stateMutability": "view",
      "type": "function"
    },
    {
      "inputs": [
        {
          "internalType": "uint256",
          "name": "tokenId",
          "type": "uint256"
        }
      ],
      "name": "ownerOf",
      "outputs": [
        {
          "internalType": "address",
          "name": "",
          "type": "address"
        }
      ],
      "stateMutability": "view",
      "type": "function"
    },
    {
      "inputs": [],
      "name": "renounceOwnership",
      "outputs": [],
      "stateMutability": "nonpayable",
      "type": "function"
    },
    {
      "inputs": [],
      "name": "safeMint",
      "outputs": [],
      "stateMutability": "payable",
      "type": "function"
    },
    {
      "inputs": [
        {
          "internalType": "address",
          "name": "from",
          "type": "address"
        },
        {
          "internalType": "address",
          "name": "to",
          "type": "address"
        },
        {
          "internalType": "uint256",
          "name": "tokenId",
          "type": "uint256"
        }
      ],
      "name": "safeTransferFrom",
      "outputs": [],
      "stateMutability": "nonpayable",
      "type": "function"
    },
    {
      "inputs": [
        {
          "internalType": "address",
          "name": "from",
          "type": "address"
        },
        {
          "internalType": "address",
          "name": "to",
          "type": "address"
        },
        {
          "internalType": "uint256",
          "name": "tokenId",
          "type": "uint256"
        },
        {
          "internalType": "bytes",
          "name": "_data",
          "type": "bytes"
        }
      ],
      "name": "safeTransferFrom",
      "outputs": [],
      "stateMutability": "nonpayable",
      "type": "function"
    },
    {
      "inputs": [
        {
          "internalType": "address",
          "name": "operator",
          "type": "address"
        },
        {
          "internalType": "bool",
          "name": "approved",
          "type": "bool"
        }
      ],
      "name": "setApprovalForAll",
      "outputs": [],
      "stateMutability": "nonpayable",
      "type": "function"
    },
    {
      "inputs": [
        {
          "internalType": "uint256",
          "name": "_tokenID",
          "type": "uint256"
        },
        {
          "internalType": "string",
          "name": "_tokenURI",
          "type": "string"
        }
      ],
      "name": "setTokenURI",
      "outputs": [
        {
          "internalType": "bool",
          "name": "",
          "type": "bool"
        }
      ],
      "stateMutability": "nonpayable",
      "type": "function"
    },
    {
      "inputs": [
        {
          "internalType": "bytes4",
          "name": "interfaceId",
          "type": "bytes4"
        }
      ],
      "name": "supportsInterface",
      "outputs": [
        {
          "internalType": "bool",
          "name": "",
          "type": "bool"
        }
      ],
      "stateMutability": "view",
      "type": "function"
    },
    {
      "inputs": [],
      "name": "symbol",
      "outputs": [
        {
          "internalType": "string",
          "name": "",
          "type": "string"
        }
      ],
      "stateMutability": "view",
      "type": "function"
    },
    {
      "inputs": [
        {
          "internalType": "uint256",
          "name": "index",
          "type": "uint256"
        }
      ],
      "name": "tokenByIndex",
      "outputs": [
        {
          "internalType": "uint256",
          "name": "",
          "type": "uint256"
        }
      ],
      "stateMutability": "view",
      "type": "function"
    },
    {
      "inputs": [
        {
          "internalType": "address",
          "name": "owner",
          "type": "address"
        },
        {
          "internalType": "uint256",
          "name": "index",
          "type": "uint256"
        }
      ],
      "name": "tokenOfOwnerByIndex",
      "outputs": [
        {
          "internalType": "uint256",
          "name": "",
          "type": "uint256"
        }
      ],
      "stateMutability": "view",
      "type": "function"
    },
    {
      "inputs": [
        {
          "internalType": "uint256",
          "name": "tokenId",
          "type": "uint256"
        }
      ],
      "name": "tokenURI",
      "outputs": [
        {
          "internalType": "string",
          "name": "",
          "type": "string"
        }
      ],
      "stateMutability": "view",
      "type": "function"
    },
    {
      "inputs": [],
      "name": "totalSupply",
      "outputs": [
        {
          "internalType": "uint256",
          "name": "",
          "type": "uint256"
        }
      ],
      "stateMutability": "view",
      "type": "function"
    },
    {
      "inputs": [
        {
          "internalType": "address",
          "name": "from",
          "type": "address"
        },
        {
          "internalType": "address",
          "name": "to",
          "type": "address"
        },
        {
          "internalType": "uint256",
          "name": "tokenId",
          "type": "uint256"
        }
      ],
      "name": "transferFrom",
      "outputs": [],
      "stateMutability": "nonpayable",
      "type": "function"
    },
    {
      "inputs": [
        {
          "internalType": "address",
          "name": "newOwner",
          "type": "address"
        }
      ],
      "name": "transferOwnership",
      "outputs": [],
      "stateMutability": "nonpayable",
      "type": "function"
    }
  ],
  "bytecode": "0x60806040523480156200001157600080fd5b506040518060400160405280600481526020017f41524d59000000000000000000000000000000000000000000000000000000008152506040518060400160405280600381526020017f41524d0000000000000000000000000000000000000000000000000000000000815250816000908051906020019062000096929190620001a6565b508060019080519060200190620000af929190620001a6565b505050620000d2620000c6620000d860201b60201c565b620000e060201b60201c565b620002bb565b600033905090565b6000600b60009054906101000a900473ffffffffffffffffffffffffffffffffffffffff16905081600b60006101000a81548173ffffffffffffffffffffffffffffffffffffffff021916908373ffffffffffffffffffffffffffffffffffffffff1602179055508173ffffffffffffffffffffffffffffffffffffffff168173ffffffffffffffffffffffffffffffffffffffff167f8be0079c531659141344cd1fd0a4f28419497f9722a3daafe3b4186f6b6457e060405160405180910390a35050565b828054620001b49062000256565b90600052602060002090601f016020900481019282620001d8576000855562000224565b82601f10620001f357805160ff191683800117855562000224565b8280016001018555821562000224579182015b828111156200022357825182559160200191906001019062000206565b5b50905062000233919062000237565b5090565b5b808211156200025257600081600090555060010162000238565b5090565b600060028204905060018216806200026f57607f821691505b602082108114156200028657620002856200028c565b5b50919050565b7f4e487b7100000000000000000000000000000000000000000000000000000000600052602260045260246000fd5b613abc80620002cb6000396000f3fe60806040526004361061012a5760003560e01c80636352211e116100ab57806395d89b411161006f57806395d89b41146103f7578063a22cb46514610422578063b88d4fde1461044b578063c87b56dd14610474578063e985e9c5146104b1578063f2fde38b146104ee5761012a565b80636352211e146103315780636871ee401461036e57806370a0823114610378578063715018a6146103b55780638da5cb5b146103cc5761012a565b806318160ddd116100f257806318160ddd1461023a57806323b872dd146102655780632f745c591461028e57806342842e0e146102cb5780634f6ccce7146102f45761012a565b806301ffc9a71461012f57806306fdde031461016c578063081812fc14610197578063095ea7b3146101d4578063162094c4146101fd575b600080fd5b34801561013b57600080fd5b5061015660048036038101906101519190612837565b610517565b6040516101639190612d40565b60405180910390f35b34801561017857600080fd5b50610181610529565b60405161018e9190612d5b565b60405180910390f35b3480156101a357600080fd5b506101be60048036038101906101b99190612889565b6105bb565b6040516101cb9190612cd9565b60405180910390f35b3480156101e057600080fd5b506101fb60048036038101906101f691906127fb565b610640565b005b34801561020957600080fd5b50610224600480360381019061021f91906128b2565b610758565b6040516102319190612d40565b60405180910390f35b34801561024657600080fd5b5061024f6107ea565b60405161025c919061301d565b60405180910390f35b34801561027157600080fd5b5061028c600480360381019061028791906126f5565b6107f7565b005b34801561029a57600080fd5b506102b560048036038101906102b091906127fb565b610857565b6040516102c2919061301d565b60405180910390f35b3480156102d757600080fd5b506102f260048036038101906102ed91906126f5565b6108fc565b005b34801561030057600080fd5b5061031b60048036038101906103169190612889565b61091c565b604051610328919061301d565b60405180910390f35b34801561033d57600080fd5b5061035860048036038101906103539190612889565b6109b3565b6040516103659190612cd9565b60405180910390f35b610376610a65565b005b34801561038457600080fd5b5061039f600480360381019061039a9190612690565b610b01565b6040516103ac919061301d565b60405180910390f35b3480156103c157600080fd5b506103ca610bb9565b005b3480156103d857600080fd5b506103e1610c41565b6040516103ee9190612cd9565b60405180910390f35b34801561040357600080fd5b5061040c610c6b565b6040516104199190612d5b565b60405180910390f35b34801561042e57600080fd5b50610449600480360381019061044491906127bf565b610cfd565b005b34801561045757600080fd5b50610472600480360381019061046d9190612744565b610e7e565b005b34801561048057600080fd5b5061049b60048036038101906104969190612889565b610ee0565b6040516104a89190612d5b565b60405180910390f35b3480156104bd57600080fd5b506104d860048036038101906104d391906126b9565b610ef2565b6040516104e59190612d40565b60405180910390f35b3480156104fa57600080fd5b5061051560048036038101906105109190612690565b610f86565b005b60006105228261107e565b9050919050565b60606000805461053890613273565b80601f016020809104026020016040519081016040528092919081815260200182805461056490613273565b80156105b15780601f10610586576101008083540402835291602001916105b1565b820191906000526020600020905b81548152906001019060200180831161059457829003601f168201915b5050505050905090565b60006105c6826110f8565b610605576040517f08c379a00000000000000000000000000000000000000000000000000000000081526004016105fc90612f3d565b60405180910390fd5b6004600083815260200190815260200160002060009054906101000a900473ffffffffffffffffffffffffffffffffffffffff169050919050565b600061064b826109b3565b90508073ffffffffffffffffffffffffffffffffffffffff168373ffffffffffffffffffffffffffffffffffffffff1614156106bc576040517f08c379a00000000000000000000000000000000000000000000000000000000081526004016106b390612fbd565b60405180910390fd5b8073ffffffffffffffffffffffffffffffffffffffff166106db611164565b73ffffffffffffffffffffffffffffffffffffffff16148061070a575061070981610704611164565b610ef2565b5b610749576040517f08c379a000000000000000000000000000000000000000000000000000000000815260040161074090612e7d565b60405180910390fd5b610753838361116c565b505050565b6000610762611164565b73ffffffffffffffffffffffffffffffffffffffff16610780610c41565b73ffffffffffffffffffffffffffffffffffffffff16146107d6576040517f08c379a00000000000000000000000000000000000000000000000000000000081526004016107cd90612f5d565b60405180910390fd5b6107e08383611225565b6001905092915050565b6000600880549050905090565b610808610802611164565b82611299565b610847576040517f08c379a000000000000000000000000000000000000000000000000000000000815260040161083e90612fdd565b60405180910390fd5b610852838383611377565b505050565b600061086283610b01565b82106108a3576040517f08c379a000000000000000000000000000000000000000000000000000000000815260040161089a90612d7d565b60405180910390fd5b600660008473ffffffffffffffffffffffffffffffffffffffff1673ffffffffffffffffffffffffffffffffffffffff168152602001908152602001600020600083815260200190815260200160002054905092915050565b61091783838360405180602001604052806000815250610e7e565b505050565b60006109266107ea565b8210610967576040517f08c379a000000000000000000000000000000000000000000000000000000000815260040161095e90612ffd565b60405180910390fd5b600882815481106109a1577f4e487b7100000000000000000000000000000000000000000000000000000000600052603260045260246000fd5b90600052602060002001549050919050565b6000806002600084815260200190815260200160002060009054906101000a900473ffffffffffffffffffffffffffffffffffffffff169050600073ffffffffffffffffffffffffffffffffffffffff168173ffffffffffffffffffffffffffffffffffffffff161415610a5c576040517f08c379a0000000000000000000000000000000000000000000000000000000008152600401610a5390612ebd565b60405180910390fd5b80915050919050565b67016345785d8a0000341015610ab0576040517f08c379a0000000000000000000000000000000000000000000000000000000008152600401610aa790612dfd565b60405180910390fd5b610aca610abb611164565b610ac5600c6115d3565b6115e1565b610af5610ad7600c6115d3565b604051806080016040528060508152602001613a3760509139611225565b610aff600c6115ff565b565b60008073ffffffffffffffffffffffffffffffffffffffff168273ffffffffffffffffffffffffffffffffffffffff161415610b72576040517f08c379a0000000000000000000000000000000000000000000000000000000008152600401610b6990612e9d565b60405180910390fd5b600360008373ffffffffffffffffffffffffffffffffffffffff1673ffffffffffffffffffffffffffffffffffffffff168152602001908152602001600020549050919050565b610bc1611164565b73ffffffffffffffffffffffffffffffffffffffff16610bdf610c41565b73ffffffffffffffffffffffffffffffffffffffff1614610c35576040517f08c379a0000000000000000000000000000000000000000000000000000000008152600401610c2c90612f5d565b60405180910390fd5b610c3f6000611615565b565b6000600b60009054906101000a900473ffffffffffffffffffffffffffffffffffffffff16905090565b606060018054610c7a90613273565b80601f0160208091040260200160405190810160405280929190818152602001828054610ca690613273565b8015610cf35780601f10610cc857610100808354040283529160200191610cf3565b820191906000526020600020905b815481529060010190602001808311610cd657829003601f168201915b5050505050905090565b610d05611164565b73ffffffffffffffffffffffffffffffffffffffff168273ffffffffffffffffffffffffffffffffffffffff161415610d73576040517f08c379a0000000000000000000000000000000000000000000000000000000008152600401610d6a90612e3d565b60405180910390fd5b8060056000610d80611164565b73ffffffffffffffffffffffffffffffffffffffff1673ffffffffffffffffffffffffffffffffffffffff16815260200190815260200160002060008473ffffffffffffffffffffffffffffffffffffffff1673ffffffffffffffffffffffffffffffffffffffff16815260200190815260200160002060006101000a81548160ff0219169083151502179055508173ffffffffffffffffffffffffffffffffffffffff16610e2d611164565b73ffffffffffffffffffffffffffffffffffffffff167f17307eab39ab6107e8899845ad3d59bd9653f200f220920489ca2b5937696c3183604051610e729190612d40565b60405180910390a35050565b610e8f610e89611164565b83611299565b610ece576040517f08c379a0000000000000000000000000000000000000000000000000000000008152600401610ec590612fdd565b60405180910390fd5b610eda848484846116db565b50505050565b6060610eeb82611737565b9050919050565b6000600560008473ffffffffffffffffffffffffffffffffffffffff1673ffffffffffffffffffffffffffffffffffffffff16815260200190815260200160002060008373ffffffffffffffffffffffffffffffffffffffff1673ffffffffffffffffffffffffffffffffffffffff16815260200190815260200160002060009054906101000a900460ff16905092915050565b610f8e611164565b73ffffffffffffffffffffffffffffffffffffffff16610fac610c41565b73ffffffffffffffffffffffffffffffffffffffff1614611002576040517f08c379a0000000000000000000000000000000000000000000000000000000008152600401610ff990612f5d565b60405180910390fd5b600073ffffffffffffffffffffffffffffffffffffffff168173ffffffffffffffffffffffffffffffffffffffff161415611072576040517f08c379a000000000000000000000000000000000000000000000000000000000815260040161106990612dbd565b60405180910390fd5b61107b81611615565b50565b60007f780e9d63000000000000000000000000000000000000000000000000000000007bffffffffffffffffffffffffffffffffffffffffffffffffffffffff1916827bffffffffffffffffffffffffffffffffffffffffffffffffffffffff191614806110f157506110f082611889565b5b9050919050565b60008073ffffffffffffffffffffffffffffffffffffffff166002600084815260200190815260200160002060009054906101000a900473ffffffffffffffffffffffffffffffffffffffff1673ffffffffffffffffffffffffffffffffffffffff1614159050919050565b600033905090565b816004600083815260200190815260200160002060006101000a81548173ffffffffffffffffffffffffffffffffffffffff021916908373ffffffffffffffffffffffffffffffffffffffff160217905550808273ffffffffffffffffffffffffffffffffffffffff166111df836109b3565b73ffffffffffffffffffffffffffffffffffffffff167f8c5be1e5ebec7d5bd14f71427d1e84f3dd0314c0f7b2291e5b200ac8c7c3b92560405160405180910390a45050565b61122e826110f8565b61126d576040517f08c379a000000000000000000000000000000000000000000000000000000000815260040161126490612edd565b60405180910390fd5b80600a600084815260200190815260200160002090805190602001906112949291906124b4565b505050565b60006112a4826110f8565b6112e3576040517f08c379a00000000000000000000000000000000000000000000000000000000081526004016112da90612e5d565b60405180910390fd5b60006112ee836109b3565b90508073ffffffffffffffffffffffffffffffffffffffff168473ffffffffffffffffffffffffffffffffffffffff16148061135d57508373ffffffffffffffffffffffffffffffffffffffff16611345846105bb565b73ffffffffffffffffffffffffffffffffffffffff16145b8061136e575061136d8185610ef2565b5b91505092915050565b8273ffffffffffffffffffffffffffffffffffffffff16611397826109b3565b73ffffffffffffffffffffffffffffffffffffffff16146113ed576040517f08c379a00000000000000000000000000000000000000000000000000000000081526004016113e490612f7d565b60405180910390fd5b600073ffffffffffffffffffffffffffffffffffffffff168273ffffffffffffffffffffffffffffffffffffffff16141561145d576040517f08c379a000000000000000000000000000000000000000000000000000000000815260040161145490612e1d565b60405180910390fd5b61146883838361196b565b61147360008261116c565b6001600360008573ffffffffffffffffffffffffffffffffffffffff1673ffffffffffffffffffffffffffffffffffffffff16815260200190815260200160002060008282546114c39190613189565b925050819055506001600360008473ffffffffffffffffffffffffffffffffffffffff1673ffffffffffffffffffffffffffffffffffffffff168152602001908152602001600020600082825461151a9190613102565b92505081905550816002600083815260200190815260200160002060006101000a81548173ffffffffffffffffffffffffffffffffffffffff021916908373ffffffffffffffffffffffffffffffffffffffff160217905550808273ffffffffffffffffffffffffffffffffffffffff168473ffffffffffffffffffffffffffffffffffffffff167fddf252ad1be2c89b69c2b068fc378daa952ba7f163c4a11628f55a4df523b3ef60405160405180910390a4505050565b600081600001549050919050565b6115fb82826040518060200160405280600081525061197b565b5050565b6001816000016000828254019250508190555050565b6000600b60009054906101000a900473ffffffffffffffffffffffffffffffffffffffff16905081600b60006101000a81548173ffffffffffffffffffffffffffffffffffffffff021916908373ffffffffffffffffffffffffffffffffffffffff1602179055508173ffffffffffffffffffffffffffffffffffffffff168173ffffffffffffffffffffffffffffffffffffffff167f8be0079c531659141344cd1fd0a4f28419497f9722a3daafe3b4186f6b6457e060405160405180910390a35050565b6116e6848484611377565b6116f2848484846119d6565b611731576040517f08c379a000000000000000000000000000000000000000000000000000000000815260040161172890612d9d565b60405180910390fd5b50505050565b6060611742826110f8565b611781576040517f08c379a000000000000000000000000000000000000000000000000000000000815260040161177890612f1d565b60405180910390fd5b6000600a600084815260200190815260200160002080546117a190613273565b80601f01602080910402602001604051908101604052809291908181526020018280546117cd90613273565b801561181a5780601f106117ef5761010080835404028352916020019161181a565b820191906000526020600020905b8154815290600101906020018083116117fd57829003601f168201915b50505050509050600061182b611b6d565b9050600081511415611841578192505050611884565b60008251111561187657808260405160200161185e929190612cb5565b60405160208183030381529060405292505050611884565b61187f84611b84565b925050505b919050565b60007f80ac58cd000000000000000000000000000000000000000000000000000000007bffffffffffffffffffffffffffffffffffffffffffffffffffffffff1916827bffffffffffffffffffffffffffffffffffffffffffffffffffffffff1916148061195457507f5b5e139f000000000000000000000000000000000000000000000000000000007bffffffffffffffffffffffffffffffffffffffffffffffffffffffff1916827bffffffffffffffffffffffffffffffffffffffffffffffffffffffff1916145b80611964575061196382611c2b565b5b9050919050565b611976838383611c95565b505050565b6119858383611da9565b61199260008484846119d6565b6119d1576040517f08c379a00000000000000000000000000000000000000000000000000000000081526004016119c890612d9d565b60405180910390fd5b505050565b60006119f78473ffffffffffffffffffffffffffffffffffffffff16611f77565b15611b60578373ffffffffffffffffffffffffffffffffffffffff1663150b7a02611a20611164565b8786866040518563ffffffff1660e01b8152600401611a429493929190612cf4565b602060405180830381600087803b158015611a5c57600080fd5b505af1925050508015611a8d57506040513d601f19601f82011682018060405250810190611a8a9190612860565b60015b611b10573d8060008114611abd576040519150601f19603f3d011682016040523d82523d6000602084013e611ac2565b606091505b50600081511415611b08576040517f08c379a0000000000000000000000000000000000000000000000000000000008152600401611aff90612d9d565b60405180910390fd5b805181602001fd5b63150b7a0260e01b7bffffffffffffffffffffffffffffffffffffffffffffffffffffffff1916817bffffffffffffffffffffffffffffffffffffffffffffffffffffffff191614915050611b65565b600190505b949350505050565b606060405180602001604052806000815250905090565b6060611b8f826110f8565b611bce576040517f08c379a0000000000000000000000000000000000000000000000000000000008152600401611bc590612f9d565b60405180910390fd5b6000611bd8611b6d565b90506000815111611bf85760405180602001604052806000815250611c23565b80611c0284611f8a565b604051602001611c13929190612cb5565b6040516020818303038152906040525b915050919050565b60007f01ffc9a7000000000000000000000000000000000000000000000000000000007bffffffffffffffffffffffffffffffffffffffffffffffffffffffff1916827bffffffffffffffffffffffffffffffffffffffffffffffffffffffff1916149050919050565b611ca0838383612137565b600073ffffffffffffffffffffffffffffffffffffffff168373ffffffffffffffffffffffffffffffffffffffff161415611ce357611cde8161213c565b611d22565b8173ffffffffffffffffffffffffffffffffffffffff168373ffffffffffffffffffffffffffffffffffffffff1614611d2157611d208382612185565b5b5b600073ffffffffffffffffffffffffffffffffffffffff168273ffffffffffffffffffffffffffffffffffffffff161415611d6557611d60816122f2565b611da4565b8273ffffffffffffffffffffffffffffffffffffffff168273ffffffffffffffffffffffffffffffffffffffff1614611da357611da28282612435565b5b5b505050565b600073ffffffffffffffffffffffffffffffffffffffff168273ffffffffffffffffffffffffffffffffffffffff161415611e19576040517f08c379a0000000000000000000000000000000000000000000000000000000008152600401611e1090612efd565b60405180910390fd5b611e22816110f8565b15611e62576040517f08c379a0000000000000000000000000000000000000000000000000000000008152600401611e5990612ddd565b60405180910390fd5b611e6e6000838361196b565b6001600360008473ffffffffffffffffffffffffffffffffffffffff1673ffffffffffffffffffffffffffffffffffffffff1681526020019081526020016000206000828254611ebe9190613102565b92505081905550816002600083815260200190815260200160002060006101000a81548173ffffffffffffffffffffffffffffffffffffffff021916908373ffffffffffffffffffffffffffffffffffffffff160217905550808273ffffffffffffffffffffffffffffffffffffffff16600073ffffffffffffffffffffffffffffffffffffffff167fddf252ad1be2c89b69c2b068fc378daa952ba7f163c4a11628f55a4df523b3ef60405160405180910390a45050565b600080823b905060008111915050919050565b60606000821415611fd2576040518060400160405280600181526020017f30000000000000000000000000000000000000000000000000000000000000008152509050612132565b600082905060005b60008214612004578080611fed906132d6565b915050600a82611ffd9190613158565b9150611fda565b60008167ffffffffffffffff811115612046577f4e487b7100000000000000000000000000000000000000000000000000000000600052604160045260246000fd5b6040519080825280601f01601f1916602001820160405280156120785781602001600182028036833780820191505090505b5090505b6000851461212b576001826120919190613189565b9150600a856120a0919061331f565b60306120ac9190613102565b60f81b8183815181106120e8577f4e487b7100000000000000000000000000000000000000000000000000000000600052603260045260246000fd5b60200101907effffffffffffffffffffffffffffffffffffffffffffffffffffffffffffff1916908160001a905350600a856121249190613158565b945061207c565b8093505050505b919050565b505050565b6008805490506009600083815260200190815260200160002081905550600881908060018154018082558091505060019003906000526020600020016000909190919091505550565b6000600161219284610b01565b61219c9190613189565b9050600060076000848152602001908152602001600020549050818114612281576000600660008673ffffffffffffffffffffffffffffffffffffffff1673ffffffffffffffffffffffffffffffffffffffff168152602001908152602001600020600084815260200190815260200160002054905080600660008773ffffffffffffffffffffffffffffffffffffffff1673ffffffffffffffffffffffffffffffffffffffff168152602001908152602001600020600084815260200190815260200160002081905550816007600083815260200190815260200160002081905550505b6007600084815260200190815260200160002060009055600660008573ffffffffffffffffffffffffffffffffffffffff1673ffffffffffffffffffffffffffffffffffffffff16815260200190815260200160002060008381526020019081526020016000206000905550505050565b600060016008805490506123069190613189565b905060006009600084815260200190815260200160002054905060006008838154811061235c577f4e487b7100000000000000000000000000000000000000000000000000000000600052603260045260246000fd5b9060005260206000200154905080600883815481106123a4577f4e487b7100000000000000000000000000000000000000000000000000000000600052603260045260246000fd5b906000526020600020018190555081600960008381526020019081526020016000208190555060096000858152602001908152602001600020600090556008805480612419577f4e487b7100000000000000000000000000000000000000000000000000000000600052603160045260246000fd5b6001900381819060005260206000200160009055905550505050565b600061244083610b01565b905081600660008573ffffffffffffffffffffffffffffffffffffffff1673ffffffffffffffffffffffffffffffffffffffff168152602001908152602001600020600083815260200190815260200160002081905550806007600084815260200190815260200160002081905550505050565b8280546124c090613273565b90600052602060002090601f0160209004810192826124e25760008555612529565b82601f106124fb57805160ff1916838001178555612529565b82800160010185558215612529579182015b8281111561252857825182559160200191906001019061250d565b5b509050612536919061253a565b5090565b5b8082111561255357600081600090555060010161253b565b5090565b600061256a6125658461305d565b613038565b90508281526020810184848401111561258257600080fd5b61258d848285613231565b509392505050565b60006125a86125a38461308e565b613038565b9050828152602081018484840111156125c057600080fd5b6125cb848285613231565b509392505050565b6000813590506125e2816139da565b92915050565b6000813590506125f7816139f1565b92915050565b60008135905061260c81613a08565b92915050565b60008151905061262181613a08565b92915050565b600082601f83011261263857600080fd5b8135612648848260208601612557565b91505092915050565b600082601f83011261266257600080fd5b8135612672848260208601612595565b91505092915050565b60008135905061268a81613a1f565b92915050565b6000602082840312156126a257600080fd5b60006126b0848285016125d3565b91505092915050565b600080604083850312156126cc57600080fd5b60006126da858286016125d3565b92505060206126eb858286016125d3565b9150509250929050565b60008060006060848603121561270a57600080fd5b6000612718868287016125d3565b9350506020612729868287016125d3565b925050604061273a8682870161267b565b9150509250925092565b6000806000806080858703121561275a57600080fd5b6000612768878288016125d3565b9450506020612779878288016125d3565b935050604061278a8782880161267b565b925050606085013567ffffffffffffffff8111156127a757600080fd5b6127b387828801612627565b91505092959194509250565b600080604083850312156127d257600080fd5b60006127e0858286016125d3565b92505060206127f1858286016125e8565b9150509250929050565b6000806040838503121561280e57600080fd5b600061281c858286016125d3565b925050602061282d8582860161267b565b9150509250929050565b60006020828403121561284957600080fd5b6000612857848285016125fd565b91505092915050565b60006020828403121561287257600080fd5b600061288084828501612612565b91505092915050565b60006020828403121561289b57600080fd5b60006128a98482850161267b565b91505092915050565b600080604083850312156128c557600080fd5b60006128d38582860161267b565b925050602083013567ffffffffffffffff8111156128f057600080fd5b6128fc85828601612651565b9150509250929050565b61290f816131bd565b82525050565b61291e816131cf565b82525050565b600061292f826130bf565b61293981856130d5565b9350612949818560208601613240565b6129528161340c565b840191505092915050565b6000612968826130ca565b61297281856130e6565b9350612982818560208601613240565b61298b8161340c565b840191505092915050565b60006129a1826130ca565b6129ab81856130f7565b93506129bb818560208601613240565b80840191505092915050565b60006129d4602b836130e6565b91506129df8261341d565b604082019050919050565b60006129f76032836130e6565b9150612a028261346c565b604082019050919050565b6000612a1a6026836130e6565b9150612a25826134bb565b604082019050919050565b6000612a3d601c836130e6565b9150612a488261350a565b602082019050919050565b6000612a606014836130e6565b9150612a6b82613533565b602082019050919050565b6000612a836024836130e6565b9150612a8e8261355c565b604082019050919050565b6000612aa66019836130e6565b9150612ab1826135ab565b602082019050919050565b6000612ac9602c836130e6565b9150612ad4826135d4565b604082019050919050565b6000612aec6038836130e6565b9150612af782613623565b604082019050919050565b6000612b0f602a836130e6565b9150612b1a82613672565b604082019050919050565b6000612b326029836130e6565b9150612b3d826136c1565b604082019050919050565b6000612b55602e836130e6565b9150612b6082613710565b604082019050919050565b6000612b786020836130e6565b9150612b838261375f565b602082019050919050565b6000612b9b6031836130e6565b9150612ba682613788565b604082019050919050565b6000612bbe602c836130e6565b9150612bc9826137d7565b604082019050919050565b6000612be16020836130e6565b9150612bec82613826565b602082019050919050565b6000612c046029836130e6565b9150612c0f8261384f565b604082019050919050565b6000612c27602f836130e6565b9150612c328261389e565b604082019050919050565b6000612c4a6021836130e6565b9150612c55826138ed565b604082019050919050565b6000612c6d6031836130e6565b9150612c788261393c565b604082019050919050565b6000612c90602c836130e6565b9150612c9b8261398b565b604082019050919050565b612caf81613227565b82525050565b6000612cc18285612996565b9150612ccd8284612996565b91508190509392505050565b6000602082019050612cee6000830184612906565b92915050565b6000608082019050612d096000830187612906565b612d166020830186612906565b612d236040830185612ca6565b8181036060830152612d358184612924565b905095945050505050565b6000602082019050612d556000830184612915565b92915050565b60006020820190508181036000830152612d75818461295d565b905092915050565b60006020820190508181036000830152612d96816129c7565b9050919050565b60006020820190508181036000830152612db6816129ea565b9050919050565b60006020820190508181036000830152612dd681612a0d565b9050919050565b60006020820190508181036000830152612df681612a30565b9050919050565b60006020820190508181036000830152612e1681612a53565b9050919050565b60006020820190508181036000830152612e3681612a76565b9050919050565b60006020820190508181036000830152612e5681612a99565b9050919050565b60006020820190508181036000830152612e7681612abc565b9050919050565b60006020820190508181036000830152612e9681612adf565b9050919050565b60006020820190508181036000830152612eb681612b02565b9050919050565b60006020820190508181036000830152612ed681612b25565b9050919050565b60006020820190508181036000830152612ef681612b48565b9050919050565b60006020820190508181036000830152612f1681612b6b565b9050919050565b60006020820190508181036000830152612f3681612b8e565b9050919050565b60006020820190508181036000830152612f5681612bb1565b9050919050565b60006020820190508181036000830152612f7681612bd4565b9050919050565b60006020820190508181036000830152612f9681612bf7565b9050919050565b60006020820190508181036000830152612fb681612c1a565b9050919050565b60006020820190508181036000830152612fd681612c3d565b9050919050565b60006020820190508181036000830152612ff681612c60565b9050919050565b6000602082019050818103600083015261301681612c83565b9050919050565b60006020820190506130326000830184612ca6565b92915050565b6000613042613053565b905061304e82826132a5565b919050565b6000604051905090565b600067ffffffffffffffff821115613078576130776133dd565b5b6130818261340c565b9050602081019050919050565b600067ffffffffffffffff8211156130a9576130a86133dd565b5b6130b28261340c565b9050602081019050919050565b600081519050919050565b600081519050919050565b600082825260208201905092915050565b600082825260208201905092915050565b600081905092915050565b600061310d82613227565b915061311883613227565b9250827fffffffffffffffffffffffffffffffffffffffffffffffffffffffffffffffff0382111561314d5761314c613350565b5b828201905092915050565b600061316382613227565b915061316e83613227565b92508261317e5761317d61337f565b5b828204905092915050565b600061319482613227565b915061319f83613227565b9250828210156131b2576131b1613350565b5b828203905092915050565b60006131c882613207565b9050919050565b60008115159050919050565b60007fffffffff0000000000000000000000000000000000000000000000000000000082169050919050565b600073ffffffffffffffffffffffffffffffffffffffff82169050919050565b6000819050919050565b82818337600083830152505050565b60005b8381101561325e578082015181840152602081019050613243565b8381111561326d576000848401525b50505050565b6000600282049050600182168061328b57607f821691505b6020821081141561329f5761329e6133ae565b5b50919050565b6132ae8261340c565b810181811067ffffffffffffffff821117156132cd576132cc6133dd565b5b80604052505050565b60006132e182613227565b91507fffffffffffffffffffffffffffffffffffffffffffffffffffffffffffffffff82141561331457613313613350565b5b600182019050919050565b600061332a82613227565b915061333583613227565b9250826133455761334461337f565b5b828206905092915050565b7f4e487b7100000000000000000000000000000000000000000000000000000000600052601160045260246000fd5b7f4e487b7100000000000000000000000000000000000000000000000000000000600052601260045260246000fd5b7f4e487b7100000000000000000000000000000000000000000000000000000000600052602260045260246000fd5b7f4e487b7100000000000000000000000000000000000000000000000000000000600052604160045260246000fd5b6000601f19601f8301169050919050565b7f455243373231456e756d657261626c653a206f776e657220696e646578206f7560008201527f74206f6620626f756e6473000000000000000000000000000000000000000000602082015250565b7f4552433732313a207472616e7366657220746f206e6f6e20455243373231526560008201527f63656976657220696d706c656d656e7465720000000000000000000000000000602082015250565b7f4f776e61626c653a206e6577206f776e657220697320746865207a65726f206160008201527f6464726573730000000000000000000000000000000000000000000000000000602082015250565b7f4552433732313a20746f6b656e20616c7265616479206d696e74656400000000600082015250565b7f53656e6465206d65204d4f524520457468657221000000000000000000000000600082015250565b7f4552433732313a207472616e7366657220746f20746865207a65726f2061646460008201527f7265737300000000000000000000000000000000000000000000000000000000602082015250565b7f4552433732313a20617070726f766520746f2063616c6c657200000000000000600082015250565b7f4552433732313a206f70657261746f7220717565727920666f72206e6f6e657860008201527f697374656e7420746f6b656e0000000000000000000000000000000000000000602082015250565b7f4552433732313a20617070726f76652063616c6c6572206973206e6f74206f7760008201527f6e6572206e6f7220617070726f76656420666f7220616c6c0000000000000000602082015250565b7f4552433732313a2062616c616e636520717565727920666f7220746865207a6560008201527f726f206164647265737300000000000000000000000000000000000000000000602082015250565b7f4552433732313a206f776e657220717565727920666f72206e6f6e657869737460008201527f656e7420746f6b656e0000000000000000000000000000000000000000000000602082015250565b7f45524337323155524953746f726167653a2055524920736574206f66206e6f6e60008201527f6578697374656e7420746f6b656e000000000000000000000000000000000000602082015250565b7f4552433732313a206d696e7420746f20746865207a65726f2061646472657373600082015250565b7f45524337323155524953746f726167653a2055524920717565727920666f722060008201527f6e6f6e6578697374656e7420746f6b656e000000000000000000000000000000602082015250565b7f4552433732313a20617070726f76656420717565727920666f72206e6f6e657860008201527f697374656e7420746f6b656e0000000000000000000000000000000000000000602082015250565b7f4f776e61626c653a2063616c6c6572206973206e6f7420746865206f776e6572600082015250565b7f4552433732313a207472616e73666572206f6620746f6b656e2074686174206960008201527f73206e6f74206f776e0000000000000000000000000000000000000000000000602082015250565b7f4552433732314d657461646174613a2055524920717565727920666f72206e6f60008201527f6e6578697374656e7420746f6b656e0000000000000000000000000000000000602082015250565b7f4552433732313a20617070726f76616c20746f2063757272656e74206f776e6560008201527f7200000000000000000000000000000000000000000000000000000000000000602082015250565b7f4552433732313a207472616e736665722063616c6c6572206973206e6f74206f60008201527f776e6572206e6f7220617070726f766564000000000000000000000000000000602082015250565b7f455243373231456e756d657261626c653a20676c6f62616c20696e646578206f60008201527f7574206f6620626f756e64730000000000000000000000000000000000000000602082015250565b6139e3816131bd565b81146139ee57600080fd5b50565b6139fa816131cf565b8114613a0557600080fd5b50565b613a11816131db565b8114613a1c57600080fd5b50565b613a2881613227565b8114613a3357600080fd5b5056fe68747470733a2f2f676174657761792e70696e6174612e636c6f75642f697066732f516d5767547a6764376a427039424d334d744e55374859334b7571564159654a4d515469344c55674c5041424661a2646970667358221220332aebfece4e9f0c1681ff829edf93ad787425e85b01487caba4b555bf8e970a64736f6c63430008040033",
  "linkReferences": {},
  "deployedLinkReferences": {}
}